{
  "contractName": "Election",
  "abi": [
    {
      "inputs": [],
      "stateMutability": "nonpayable",
      "type": "constructor"
    },
    {
      "anonymous": false,
      "inputs": [
        {
          "indexed": true,
          "internalType": "uint256",
          "name": "finishDate",
          "type": "uint256"
        },
        {
          "indexed": false,
          "internalType": "string",
          "name": "winner",
          "type": "string"
        },
        {
          "indexed": false,
          "internalType": "uint256",
          "name": "winRate",
          "type": "uint256"
        }
      ],
      "name": "ElectionFinished",
      "type": "event"
    },
    {
      "anonymous": false,
      "inputs": [
        {
          "indexed": true,
          "internalType": "uint256",
          "name": "startDate",
          "type": "uint256"
        },
        {
          "indexed": false,
          "internalType": "string[]",
          "name": "candidates",
          "type": "string[]"
        }
      ],
      "name": "ElectionStarted",
      "type": "event"
    },
    {
      "anonymous": false,
      "inputs": [
        {
          "indexed": false,
          "internalType": "address",
          "name": "voter",
          "type": "address"
        },
        {
          "indexed": false,
          "internalType": "string",
          "name": "candidate",
          "type": "string"
        }
      ],
      "name": "Voted",
      "type": "event"
    },
    {
      "inputs": [
        {
          "internalType": "uint256",
          "name": "",
          "type": "uint256"
        }
      ],
      "name": "candidates",
      "outputs": [
        {
          "internalType": "uint256",
          "name": "id",
          "type": "uint256"
        },
        {
          "internalType": "string",
          "name": "name",
          "type": "string"
        },
        {
          "internalType": "uint256",
          "name": "votes",
          "type": "uint256"
        },
        {
          "internalType": "bool",
          "name": "exists",
          "type": "bool"
        }
      ],
      "stateMutability": "view",
      "type": "function",
      "constant": true
    },
    {
      "inputs": [],
      "name": "name",
      "outputs": [
        {
          "internalType": "string",
          "name": "",
          "type": "string"
        }
      ],
      "stateMutability": "view",
      "type": "function",
      "constant": true
    },
    {
      "inputs": [],
      "name": "stage",
      "outputs": [
        {
          "internalType": "enum Election.Stage",
          "name": "",
          "type": "uint8"
        }
      ],
      "stateMutability": "view",
      "type": "function",
      "constant": true
    },
    {
      "inputs": [
        {
          "internalType": "address",
          "name": "",
          "type": "address"
        }
      ],
      "name": "voters",
      "outputs": [
        {
          "internalType": "bool",
          "name": "",
          "type": "bool"
        }
      ],
      "stateMutability": "view",
      "type": "function",
      "constant": true
    },
    {
      "inputs": [
        {
          "internalType": "string",
          "name": "_name",
          "type": "string"
        }
      ],
      "name": "AddCandidate",
      "outputs": [],
      "stateMutability": "nonpayable",
      "type": "function"
    },
    {
      "inputs": [
        {
          "internalType": "uint256",
          "name": "_id",
          "type": "uint256"
        }
      ],
      "name": "RemoveCandidate",
      "outputs": [],
      "stateMutability": "nonpayable",
      "type": "function"
    },
    {
      "inputs": [],
      "name": "GetCandidatesAmount",
      "outputs": [
        {
          "internalType": "uint256",
          "name": "amount",
          "type": "uint256"
        }
      ],
      "stateMutability": "view",
      "type": "function",
      "constant": true
    },
    {
      "inputs": [],
      "name": "StartElection",
      "outputs": [],
      "stateMutability": "nonpayable",
      "type": "function"
    },
    {
      "inputs": [],
      "name": "FinishElection",
      "outputs": [],
      "stateMutability": "nonpayable",
      "type": "function"
    },
    {
      "inputs": [
        {
          "internalType": "uint256",
          "name": "_candidateID",
          "type": "uint256"
        }
      ],
      "name": "vote",
      "outputs": [],
      "stateMutability": "nonpayable",
      "type": "function"
    }
  ],
  "bytecode": "0x60806040523480156200001157600080fd5b50336000806101000a81548173ffffffffffffffffffffffffffffffffffffffff021916908373ffffffffffffffffffffffffffffffffffffffff160217905550620000986040518060400160405280600e81526020017f566c6164696d697220426964656e0000000000000000000000000000000000008152506200013a60201b60201c565b620000de6040518060400160405280600c81526020017f4a6f65204d6564766564657600000000000000000000000000000000000000008152506200013a60201b60201c565b620001246040518060400160405280600d81526020017f446d697472697920507574696e000000000000000000000000000000000000008152506200013a60201b60201c565b620001346200034560201b60201c565b62000b1f565b3373ffffffffffffffffffffffffffffffffffffffff1660008054906101000a900473ffffffffffffffffffffffffffffffffffffffff1673ffffffffffffffffffffffffffffffffffffffff1614620001cb576040517f08c379a0000000000000000000000000000000000000000000000000000000008152600401620001c290620008f0565b60405180910390fd5b6000600181111562000206577f4e487b7100000000000000000000000000000000000000000000000000000000600052602160045260246000fd5b600360009054906101000a900460ff1660018111156200024f577f4e487b7100000000000000000000000000000000000000000000000000000000600052602160045260246000fd5b1462000292576040517f08c379a0000000000000000000000000000000000000000000000000000000008152600401620002899062000912565b60405180910390fd5b60006040518060800160405280600180549050815260200183815260200160008152602001600115158152509050600181908060018154018082558091505060019003906000526020600020906004020160009091909190915060008201518160000155602082015181600101908051906020019062000314929190620006f6565b506040820151816002015560608201518160030160006101000a81548160ff02191690831515021790555050505050565b3373ffffffffffffffffffffffffffffffffffffffff1660008054906101000a900473ffffffffffffffffffffffffffffffffffffffff1673ffffffffffffffffffffffffffffffffffffffff1614620003d6576040517f08c379a0000000000000000000000000000000000000000000000000000000008152600401620003cd90620008f0565b60405180910390fd5b6000600181111562000411577f4e487b7100000000000000000000000000000000000000000000000000000000600052602160045260246000fd5b600360009054906101000a900460ff1660018111156200045a577f4e487b7100000000000000000000000000000000000000000000000000000000600052602160045260246000fd5b146200049d576040517f08c379a0000000000000000000000000000000000000000000000000000000008152600401620004949062000912565b60405180910390fd5b600060018054905067ffffffffffffffff811115620004e5577f4e487b7100000000000000000000000000000000000000000000000000000000600052604160045260246000fd5b6040519080825280602002602001820160405280156200051a57816020015b6060815260200190600190039081620005045790505b50905060005b60018054905081101562000666576001818154811062000569577f4e487b7100000000000000000000000000000000000000000000000000000000600052603260045260246000fd5b906000526020600020906004020160010180546200058790620009da565b80601f0160208091040260200160405190810160405280929190818152602001828054620005b590620009da565b8015620006065780601f10620005da5761010080835404028352916020019162000606565b820191906000526020600020905b815481529060010190602001808311620005e857829003601f168201915b505050505082828151811062000645577f4e487b7100000000000000000000000000000000000000000000000000000000600052603260045260246000fd5b602002602001018190525080806200065d9062000a10565b91505062000520565b506001600360006101000a81548160ff02191690836001811115620006b4577f4e487b7100000000000000000000000000000000000000000000000000000000600052602160045260246000fd5b0217905550427f8d0cdf63dacc83df94d24d53ea048c6945bcd93d73986499d7b53b1447e03c6d82604051620006eb9190620008cc565b60405180910390a250565b8280546200070490620009da565b90600052602060002090601f01602090048101928262000728576000855562000774565b82601f106200074357805160ff191683800117855562000774565b8280016001018555821562000774579182015b828111156200077357825182559160200191906001019062000756565b5b50905062000783919062000787565b5090565b5b80821115620007a257600081600090555060010162000788565b5090565b6000620007b483836200083d565b905092915050565b6000620007c98262000944565b620007d5818562000967565b935083602082028501620007e98562000934565b8060005b858110156200082b5784840389528151620008098582620007a6565b945062000816836200095a565b925060208a01995050600181019050620007ed565b50829750879550505050505092915050565b60006200084a826200094f565b62000856818562000978565b935062000868818560208601620009a4565b620008738162000abc565b840191505092915050565b60006200088d60208362000989565b91506200089a8262000acd565b602082019050919050565b6000620008b4601f8362000989565b9150620008c18262000af6565b602082019050919050565b60006020820190508181036000830152620008e88184620007bc565b905092915050565b600060208201905081810360008301526200090b816200087e565b9050919050565b600060208201905081810360008301526200092d81620008a5565b9050919050565b6000819050602082019050919050565b600081519050919050565b600081519050919050565b6000602082019050919050565b600082825260208201905092915050565b600082825260208201905092915050565b600082825260208201905092915050565b6000819050919050565b60005b83811015620009c4578082015181840152602081019050620009a7565b83811115620009d4576000848401525b50505050565b60006002820490506001821680620009f357607f821691505b6020821081141562000a0a5762000a0962000a8d565b5b50919050565b600062000a1d826200099a565b91507fffffffffffffffffffffffffffffffffffffffffffffffffffffffffffffffff82141562000a535762000a5262000a5e565b5b600182019050919050565b7f4e487b7100000000000000000000000000000000000000000000000000000000600052601160045260246000fd5b7f4e487b7100000000000000000000000000000000000000000000000000000000600052602260045260246000fd5b6000601f19601f8301169050919050565b7f796f7520617265206e6f74207065726d697474656420746f20646f2074686973600082015250565b7f63616e20646f206f6e6c79207768696c652053455454494e4720706861736500600082015250565b611fdb8062000b2f6000396000f3fe608060405234801561001057600080fd5b506004361061009e5760003560e01c8063a3ec138d11610066578063a3ec138d14610136578063c040e6b814610166578063cd797fe114610184578063ce0ee3f0146101a0578063d1a84db0146101aa5761009e565b80630121b93f146100a357806306fdde03146100bf5780633477ee2e146100dd5780637e54b8e214610110578063912697751461012c575b600080fd5b6100bd60048036038101906100b891906115e9565b6101c8565b005b6100c761042e565b6040516100d49190611900565b60405180910390f35b6100f760048036038101906100f291906115e9565b6104bc565b6040516101079493929190611a0d565b60405180910390f35b61012a600480360381019061012591906115a8565b610591565b005b610134610792565b005b610150600480360381019061014b919061157f565b610b27565b60405161015d91906118ca565b60405180910390f35b61016e610b47565b60405161017b91906118e5565b60405180910390f35b61019e600480360381019061019991906115e9565b610b5a565b005b6101a8610efd565b005b6101b2611273565b6040516101bf91906119f2565b60405180910390f35b8060018181548110610203577f4e487b7100000000000000000000000000000000000000000000000000000000600052603260045260246000fd5b906000526020600020906004020160030160009054906101000a900460ff16610261576040517f08c379a0000000000000000000000000000000000000000000000000000000008152600401610258906119b2565b60405180910390fd5b600260003373ffffffffffffffffffffffffffffffffffffffff1673ffffffffffffffffffffffffffffffffffffffff16815260200190815260200160002060009054906101000a900460ff16156102ee576040517f08c379a00000000000000000000000000000000000000000000000000000000081526004016102e590611972565b60405180910390fd5b6001600260003373ffffffffffffffffffffffffffffffffffffffff1673ffffffffffffffffffffffffffffffffffffffff16815260200190815260200160002060006101000a81548160ff02191690831515021790555060018281548110610380577f4e487b7100000000000000000000000000000000000000000000000000000000600052603260045260246000fd5b906000526020600020906004020160020160008154809291906103a290611d51565b91905055507fcb6783276e8a4347387036bbfea000268f0a4b1f8c46ac79980609f2af8d2acd3360018481548110610403577f4e487b7100000000000000000000000000000000000000000000000000000000600052603260045260246000fd5b9060005260206000209060040201600101604051610422929190611878565b60405180910390a15050565b6004805461043b90611cee565b80601f016020809104026020016040519081016040528092919081815260200182805461046790611cee565b80156104b45780601f10610489576101008083540402835291602001916104b4565b820191906000526020600020905b81548152906001019060200180831161049757829003601f168201915b505050505081565b600181815481106104cc57600080fd5b90600052602060002090600402016000915090508060000154908060010180546104f590611cee565b80601f016020809104026020016040519081016040528092919081815260200182805461052190611cee565b801561056e5780601f106105435761010080835404028352916020019161056e565b820191906000526020600020905b81548152906001019060200180831161055157829003601f168201915b5050505050908060020154908060030160009054906101000a900460ff16905084565b3373ffffffffffffffffffffffffffffffffffffffff1660008054906101000a900473ffffffffffffffffffffffffffffffffffffffff1673ffffffffffffffffffffffffffffffffffffffff161461061f576040517f08c379a000000000000000000000000000000000000000000000000000000000815260040161061690611952565b60405180910390fd5b60006001811115610659577f4e487b7100000000000000000000000000000000000000000000000000000000600052602160045260246000fd5b600360009054906101000a900460ff1660018111156106a1577f4e487b7100000000000000000000000000000000000000000000000000000000600052602160045260246000fd5b146106e1576040517f08c379a00000000000000000000000000000000000000000000000000000000081526004016106d890611992565b60405180910390fd5b60006040518060800160405280600180549050815260200183815260200160008152602001600115158152509050600181908060018154018082558091505060019003906000526020600020906004020160009091909190915060008201518160000155602082015181600101908051906020019061076192919061130e565b506040820151816002015560608201518160030160006101000a81548160ff02191690831515021790555050505050565b3373ffffffffffffffffffffffffffffffffffffffff1660008054906101000a900473ffffffffffffffffffffffffffffffffffffffff1673ffffffffffffffffffffffffffffffffffffffff1614610820576040517f08c379a000000000000000000000000000000000000000000000000000000000815260040161081790611952565b60405180910390fd5b6000600181111561085a577f4e487b7100000000000000000000000000000000000000000000000000000000600052602160045260246000fd5b600360009054906101000a900460ff1660018111156108a2577f4e487b7100000000000000000000000000000000000000000000000000000000600052602160045260246000fd5b146108e2576040517f08c379a00000000000000000000000000000000000000000000000000000000081526004016108d990611992565b60405180910390fd5b600060018054905067ffffffffffffffff811115610929577f4e487b7100000000000000000000000000000000000000000000000000000000600052604160045260246000fd5b60405190808252806020026020018201604052801561095c57816020015b60608152602001906001900390816109475790505b50905060005b600180549050811015610a9a57600181815481106109a9577f4e487b7100000000000000000000000000000000000000000000000000000000600052603260045260246000fd5b906000526020600020906004020160010180546109c590611cee565b80601f01602080910402602001604051908101604052809291908181526020018280546109f190611cee565b8015610a3e5780601f10610a1357610100808354040283529160200191610a3e565b820191906000526020600020905b815481529060010190602001808311610a2157829003601f168201915b5050505050828281518110610a7c577f4e487b7100000000000000000000000000000000000000000000000000000000600052603260045260246000fd5b60200260200101819052508080610a9290611d51565b915050610962565b506001600360006101000a81548160ff02191690836001811115610ae7577f4e487b7100000000000000000000000000000000000000000000000000000000600052602160045260246000fd5b0217905550427f8d0cdf63dacc83df94d24d53ea048c6945bcd93d73986499d7b53b1447e03c6d82604051610b1c91906118a8565b60405180910390a250565b60026020528060005260406000206000915054906101000a900460ff1681565b600360009054906101000a900460ff1681565b3373ffffffffffffffffffffffffffffffffffffffff1660008054906101000a900473ffffffffffffffffffffffffffffffffffffffff1673ffffffffffffffffffffffffffffffffffffffff1614610be8576040517f08c379a0000000000000000000000000000000000000000000000000000000008152600401610bdf90611952565b60405180910390fd5b60006001811115610c22577f4e487b7100000000000000000000000000000000000000000000000000000000600052602160045260246000fd5b600360009054906101000a900460ff166001811115610c6a577f4e487b7100000000000000000000000000000000000000000000000000000000600052602160045260246000fd5b14610caa576040517f08c379a0000000000000000000000000000000000000000000000000000000008152600401610ca190611992565b60405180910390fd5b8060018181548110610ce5577f4e487b7100000000000000000000000000000000000000000000000000000000600052603260045260246000fd5b906000526020600020906004020160030160009054906101000a900460ff16610d43576040517f08c379a0000000000000000000000000000000000000000000000000000000008152600401610d3a906119b2565b60405180910390fd5b60008290505b60018080549050610d5a9190611c0b565b811015610e735760018082610d6f9190611b2a565b81548110610da6577f4e487b7100000000000000000000000000000000000000000000000000000000600052603260045260246000fd5b906000526020600020906004020160018281548110610dee577f4e487b7100000000000000000000000000000000000000000000000000000000600052603260045260246000fd5b9060005260206000209060040201600082015481600001556001820181600101908054610e1a90611cee565b610e25929190611394565b50600282015481600201556003820160009054906101000a900460ff168160030160006101000a81548160ff0219169083151502179055509050508080610e6b90611d51565b915050610d49565b506001805480610eac577f4e487b7100000000000000000000000000000000000000000000000000000000600052603160045260246000fd5b6001900381819060005260206000209060040201600080820160009055600182016000610ed99190611421565b60028201600090556003820160006101000a81549060ff0219169055505090555050565b600180811115610f36577f4e487b7100000000000000000000000000000000000000000000000000000000600052602160045260246000fd5b600360009054906101000a900460ff166001811115610f7e577f4e487b7100000000000000000000000000000000000000000000000000000000600052602160045260246000fd5b14610fbe576040517f08c379a0000000000000000000000000000000000000000000000000000000008152600401610fb5906119d2565b60405180910390fd5b60606000806000805b6001805490508110156111b8576001818154811061100e577f4e487b7100000000000000000000000000000000000000000000000000000000600052603260045260246000fd5b9060005260206000209060040201600201548361102b9190611b2a565b92508160018281548110611068577f4e487b7100000000000000000000000000000000000000000000000000000000600052603260045260246000fd5b90600052602060002090600402016002015411156111a557600181815481106110ba577f4e487b7100000000000000000000000000000000000000000000000000000000600052603260045260246000fd5b906000526020600020906004020160020154915060018181548110611108577f4e487b7100000000000000000000000000000000000000000000000000000000600052603260045260246000fd5b9060005260206000209060040201600101805461112490611cee565b80601f016020809104026020016040519081016040528092919081815260200182805461115090611cee565b801561119d5780601f106111725761010080835404028352916020019161119d565b820191906000526020600020905b81548152906001019060200180831161118057829003601f168201915b505050505094505b80806111b090611d51565b915050610fc7565b5061271082826111c89190611b80565b6111d29190611bb1565b9250600160006111e29190611461565b6000600360006101000a81548160ff0219169083600181111561122e577f4e487b7100000000000000000000000000000000000000000000000000000000600052602160045260246000fd5b0217905550427f18fbd451d1d9eaa624082d8597870f99660a3801d9ca632561d4f7d78b1ca6918585604051611265929190611922565b60405180910390a250505050565b60003373ffffffffffffffffffffffffffffffffffffffff1660008054906101000a900473ffffffffffffffffffffffffffffffffffffffff1673ffffffffffffffffffffffffffffffffffffffff1614611303576040517f08c379a00000000000000000000000000000000000000000000000000000000081526004016112fa90611952565b60405180910390fd5b600180549050905090565b82805461131a90611cee565b90600052602060002090601f01602090048101928261133c5760008555611383565b82601f1061135557805160ff1916838001178555611383565b82800160010185558215611383579182015b82811115611382578251825591602001919060010190611367565b5b5090506113909190611485565b5090565b8280546113a090611cee565b90600052602060002090601f0160209004810192826113c25760008555611410565b82601f106113d35780548555611410565b8280016001018555821561141057600052602060002091601f016020900482015b8281111561140f5782548255916001019190600101906113f4565b5b50905061141d9190611485565b5090565b50805461142d90611cee565b6000825580601f1061143f575061145e565b601f01602090049060005260206000209081019061145d9190611485565b5b50565b508054600082556004029060005260206000209081019061148291906114a2565b50565b5b8082111561149e576000816000905550600101611486565b5090565b5b808211156114e9576000808201600090556001820160006114c49190611421565b60028201600090556003820160006101000a81549060ff0219169055506004016114a3565b5090565b60006115006114fb84611a7e565b611a59565b90508281526020810184848401111561151857600080fd5b611523848285611cac565b509392505050565b60008135905061153a81611f77565b92915050565b600082601f83011261155157600080fd5b81356115618482602086016114ed565b91505092915050565b60008135905061157981611f8e565b92915050565b60006020828403121561159157600080fd5b600061159f8482850161152b565b91505092915050565b6000602082840312156115ba57600080fd5b600082013567ffffffffffffffff8111156115d457600080fd5b6115e084828501611540565b91505092915050565b6000602082840312156115fb57600080fd5b60006116098482850161156a565b91505092915050565b600061161e83836116c8565b905092915050565b61162f81611c3f565b82525050565b600061164082611ad4565b61164a8185611af7565b93508360208202850161165c85611aaf565b8060005b8581101561169857848403895281516116798582611612565b945061168483611aea565b925060208a01995050600181019050611660565b50829750879550505050505092915050565b6116b381611c51565b82525050565b6116c281611c9a565b82525050565b60006116d382611adf565b6116dd8185611b08565b93506116ed818560208601611cbb565b6116f681611e85565b840191505092915050565b600061170c82611adf565b6117168185611b19565b9350611726818560208601611cbb565b61172f81611e85565b840191505092915050565b6000815461174781611cee565b6117518186611b19565b9450600182166000811461176c576001811461177e576117b1565b60ff19831686526020860193506117b1565b61178785611abf565b60005b838110156117a95781548189015260018201915060208101905061178a565b808801955050505b50505092915050565b60006117c7602083611b19565b91506117d282611e96565b602082019050919050565b60006117ea601683611b19565b91506117f582611ebf565b602082019050919050565b600061180d601f83611b19565b915061181882611ee8565b602082019050919050565b6000611830601783611b19565b915061183b82611f11565b602082019050919050565b6000611853601e83611b19565b915061185e82611f3a565b602082019050919050565b61187281611c90565b82525050565b600060408201905061188d6000830185611626565b818103602083015261189f818461173a565b90509392505050565b600060208201905081810360008301526118c28184611635565b905092915050565b60006020820190506118df60008301846116aa565b92915050565b60006020820190506118fa60008301846116b9565b92915050565b6000602082019050818103600083015261191a8184611701565b905092915050565b6000604082019050818103600083015261193c8185611701565b905061194b6020830184611869565b9392505050565b6000602082019050818103600083015261196b816117ba565b9050919050565b6000602082019050818103600083015261198b816117dd565b9050919050565b600060208201905081810360008301526119ab81611800565b9050919050565b600060208201905081810360008301526119cb81611823565b9050919050565b600060208201905081810360008301526119eb81611846565b9050919050565b6000602082019050611a076000830184611869565b92915050565b6000608082019050611a226000830187611869565b8181036020830152611a348186611701565b9050611a436040830185611869565b611a5060608301846116aa565b95945050505050565b6000611a63611a74565b9050611a6f8282611d20565b919050565b6000604051905090565b600067ffffffffffffffff821115611a9957611a98611e56565b5b611aa282611e85565b9050602081019050919050565b6000819050602082019050919050565b60008190508160005260206000209050919050565b600081519050919050565b600081519050919050565b6000602082019050919050565b600082825260208201905092915050565b600082825260208201905092915050565b600082825260208201905092915050565b6000611b3582611c90565b9150611b4083611c90565b9250827fffffffffffffffffffffffffffffffffffffffffffffffffffffffffffffffff03821115611b7557611b74611d9a565b5b828201905092915050565b6000611b8b82611c90565b9150611b9683611c90565b925082611ba657611ba5611dc9565b5b828204905092915050565b6000611bbc82611c90565b9150611bc783611c90565b9250817fffffffffffffffffffffffffffffffffffffffffffffffffffffffffffffffff0483118215151615611c0057611bff611d9a565b5b828202905092915050565b6000611c1682611c90565b9150611c2183611c90565b925082821015611c3457611c33611d9a565b5b828203905092915050565b6000611c4a82611c70565b9050919050565b60008115159050919050565b6000819050611c6b82611f63565b919050565b600073ffffffffffffffffffffffffffffffffffffffff82169050919050565b6000819050919050565b6000611ca582611c5d565b9050919050565b82818337600083830152505050565b60005b83811015611cd9578082015181840152602081019050611cbe565b83811115611ce8576000848401525b50505050565b60006002820490506001821680611d0657607f821691505b60208210811415611d1a57611d19611e27565b5b50919050565b611d2982611e85565b810181811067ffffffffffffffff82111715611d4857611d47611e56565b5b80604052505050565b6000611d5c82611c90565b91507fffffffffffffffffffffffffffffffffffffffffffffffffffffffffffffffff821415611d8f57611d8e611d9a565b5b600182019050919050565b7f4e487b7100000000000000000000000000000000000000000000000000000000600052601160045260246000fd5b7f4e487b7100000000000000000000000000000000000000000000000000000000600052601260045260246000fd5b7f4e487b7100000000000000000000000000000000000000000000000000000000600052602160045260246000fd5b7f4e487b7100000000000000000000000000000000000000000000000000000000600052602260045260246000fd5b7f4e487b7100000000000000000000000000000000000000000000000000000000600052604160045260246000fd5b6000601f19601f8301169050919050565b7f796f7520617265206e6f74207065726d697474656420746f20646f2074686973600082015250565b7f796f75206861766520616c726561647920766f74656400000000000000000000600082015250565b7f63616e20646f206f6e6c79207768696c652053455454494e4720706861736500600082015250565b7f63616e64696461746520646f65736e2774206578697374000000000000000000600082015250565b7f63616e20646f206f6e6c79207768696c6520564f54494e472070686173650000600082015250565b60028110611f7457611f73611df8565b5b50565b611f8081611c3f565b8114611f8b57600080fd5b50565b611f9781611c90565b8114611fa257600080fd5b5056fea26469706673582212208536945c31f9d8f969baace995f1b39ba8be2d4a0f1d3eebbfd3ebb580dc637764736f6c63430008040033",
  "immutableReferences": {},
  "source": "// SPDX-License-Identifier: MIT\r\npragma solidity >=0.7.0;\r\npragma experimental ABIEncoderV2;\r\n\r\ncontract Election\r\n{\r\n\t// var\r\n\tstruct Candidate\r\n\t{\r\n\t\tuint256 id;\r\n\t\tstring name;\r\n\t\tuint256 votes;\r\n\t\tbool exists;\r\n\t}\r\n\r\n\tenum Stage\r\n\t{\r\n\t\tSetting,\r\n\t\tVoting\r\n\t}\r\n\t\r\n\taddress private owner;\r\n\r\n\tCandidate [] public candidates;\r\n\tmapping (address => bool) public voters;\r\n\r\n\tStage public stage;\r\n\t//\r\n\r\n\r\n\t// events\r\n\tevent ElectionStarted (\r\n\t\tuint256 indexed startDate,\r\n\t\tstring [] candidates\r\n\t);\r\n\r\n\tevent ElectionFinished (\r\n\t\tuint256 indexed finishDate,\r\n\t\tstring winner,\r\n\t\tuint256 winRate\r\n\t);\r\n\t\r\n\tevent Voted (\r\n\t    address voter,\r\n\t    string candidate\r\n\t);\r\n\t//\r\n\r\n\r\n\t// modifiers\r\n\tmodifier OnlyOwner\r\n\t{\r\n\t\trequire (owner == msg.sender, \"you are not permitted to do this\");\r\n\t\t_;\r\n\t}\r\n\r\n\tmodifier OnlyVotingStage\r\n\t{\r\n\t\trequire (stage == Stage.Voting, \"can do only while VOTING phase\");\r\n\t\t_;\r\n\t}\r\n\tmodifier OnlySettingStage\r\n\t{\r\n\t\trequire (stage == Stage.Setting, \"can do only while SETTING phase\");\r\n\t\t_;\r\n\t}\r\n\t\r\n\tmodifier CandidateExists (uint256 _id)\r\n\t{\r\n\t    require (candidates[_id].exists, \"candidate doesn't exist\");\r\n\t    _;\r\n\t}\r\n\t//\r\n\r\n\r\n\t// construct\r\n\tconstructor ()\r\n\t{\r\n\t\towner = msg.sender;\r\n\r\n\t\tAddCandidate('Vladimir Biden');\r\n\t\tAddCandidate('Joe Medvedev');\r\n\t\tAddCandidate('Dmitriy Putin');\r\n\r\n\t\tStartElection();\r\n\t}\r\n\t//\r\n\r\n\r\n\t// owner scope : ADD / REMOVE candidate\r\n\tstring public name;\r\n\tfunction AddCandidate (string memory _name)\r\n\t\tpublic\r\n\t\tOnlyOwner\r\n\t\tOnlySettingStage\r\n\t{\r\n\t\tCandidate memory newCandidate = Candidate(candidates.length, _name, 0, true);\r\n\t\tcandidates.push(newCandidate);\r\n\t}\r\n\r\n\tfunction RemoveCandidate (uint256 _id)\r\n\t\tpublic\r\n\t\tOnlyOwner\r\n\t\tOnlySettingStage\r\n\t\tCandidateExists(_id)\r\n\t{\r\n\t\tfor (uint i = _id; i < candidates.length - 1; i++)\r\n\t\t\tcandidates[i] = candidates[i + 1];\r\n\r\n\t\tcandidates.pop();\r\n\t}\r\n\r\n\tfunction GetCandidatesAmount()\r\n\t\tview\r\n\t\tpublic\r\n\t\tOnlyOwner\r\n\t\treturns (uint256 amount)\r\n\t{\r\n\t\treturn candidates.length;\r\n\t}\r\n\t//\r\n\r\n\t// owner scope : START / FINISH elections\r\n\tfunction StartElection ()\r\n\t\tpublic\r\n\t\tOnlyOwner\r\n\t\tOnlySettingStage\r\n\t{\r\n\t\t// read and store candidates.name array\r\n\t\tstring [] memory _candidates = new string[](candidates.length);\r\n\r\n\t\tfor (uint256 i = 0; i < candidates.length; i++)\r\n\t\t\t_candidates[i] = candidates[i].name;\r\n\r\n\t\t// set stage\r\n\t\tstage = Stage.Voting;\r\n\r\n\t\t// log election started\r\n\t\temit ElectionStarted (block.timestamp, _candidates);\r\n\t}\r\n\r\n\tfunction FinishElection ()\r\n\t\tpublic\r\n\t\tOnlyVotingStage\r\n\t{\r\n\t\t// calc winner\r\n\t\tstring memory _winner;\r\n\t\tuint256 _winrate = 0;\r\n\t\tuint256 _totalScore = 0;\r\n\t\tuint256 _currentScore = 0;\r\n\r\n\t\tfor (uint256 i = 0; i < candidates.length; i++)\r\n\t\t{\r\n\t\t\t_totalScore += candidates[i].votes;\r\n\r\n\t\t\tif (candidates[i].votes > _currentScore)\r\n\t\t\t{\r\n\t\t\t\t_currentScore = candidates[i].votes;\r\n\t\t\t\t_winner = candidates[i].name;\r\n\t\t\t}\r\n\t\t}\r\n\r\n\t\t_winrate = ( _currentScore / _totalScore ) * 10000;\r\n\r\n\t\t// drop defaults\r\n\t\tdelete candidates;\r\n\r\n\t\t// set stage\r\n\t\tstage = Stage.Setting;\r\n\r\n\t\t// log stats\r\n\t\temit ElectionFinished (block.timestamp, _winner, _winrate);\r\n\t}\r\n\t//\r\n\r\n\r\n\t// consumer scope\r\n\tfunction vote (uint256 _candidateID)\r\n\t\tpublic\r\n\t\tCandidateExists(_candidateID)\r\n\t{\r\n\t\trequire (!voters[msg.sender], \"you have already voted\");\r\n\r\n\t\tvoters[msg.sender] = true;\r\n\t\tcandidates[_candidateID].votes ++;\r\n\r\n\t\temit Voted (msg.sender, candidates[_candidateID].name);\r\n\t}\r\n\t//\r\n}",
  "sourcePath": "G:/solidity/sol_3_voting/contracts/Election.sol",
  "compiler": {
    "name": "solc",
    "version": "0.8.4+commit.c7e474f2.Emscripten.clang"
  },
  "schemaVersion": "3.4.0",
  "updatedAt": "2021-04-30T05:18:57.979Z",
  "networkType": "ethereum",
  "devdoc": {
    "kind": "dev",
    "methods": {},
    "version": 1
  },
  "userdoc": {
    "kind": "user",
    "methods": {},
    "version": 1
  }
}